:100000000C94971F0C94C81F0C94C81F0C94C81F05
:100010000C94C81F0C94C81F0C94C81F0C94C81FC4
:100020000C94C81F0C94C81F0C94C81F0C94C81FB4
:100030000C94C81F0C947EBB0C94C81F0C94C81F52
:100040000C94C81F0C94B98F0C94C81F0C94C81F33
:100050000C94C81F0C94C81F0C94F8FF0D94523CCC
:100060000C94C81F0C94B13F0C94A73F0C94C81F6C
:100070000C94C81F0C94C81F0C94C81F0C94C81F64
:100080000C948E390C94C81F0C94C81F0C94C81F74
:100090000C94C81F0C94C81F0C94C81F0C94C81F44
:1000A0000C94C81F0C94C81F0C9460390C94C81F82
:1000B0000C94C81F0C94C81F0C94C81F0C943239A0
:1000C0000C94C81F0C94C81F0C94C81F0C94C81F14
:1000D0000C94C81F0C94C81F0C94C81F0C94C81F04
:1000E0000C94C81FE43FEA3FFB3F06400E4023400C
:1000F0001240234016401A40234020406ECF47CF85
:100100004ACF71CF4DCF50CF53CF5FCF56CF6CCFAB
:1001100059CF5CCFDA017E020C0266010C020C02A0
:100120000C020C020C020C020C020C020C020C025F
:100130000C020C020C020C020C020C020C020C024F
:100140000C020C020C020C020C020C020C020C023F
:10015000D4010C020C020C020C020C020C020C0268
:100160000C02DE010C020C020C020C020C020C024E
:100170000C020C020C020C02C80124018C02880241
:1001800034028401C6014E02140164029601600229
:10019000F60126026A0190024E0208027E01360133
:1001A0007C011A014C01520294019A01B201CE0164
:1001B000D6016401EA01A6015001FE019A018801FD
:1001C00032021A02084AD73B3BCE016E84BCBFFD07
:1001D000C12F3D6C74319ABD56833DDA3D00C77F17
:1001E00011BED9E4BB4C3E916BAAAABE00000080B0
:1001F0003F05A84CCDB2D44EB93836A9020C50B93F
:10020000918688083CA6AAAA2ABE000000803F006A
:100210000C94CDCB0C94E9CB0C946D890C94E6D066
:100220000C9474CF0C940E400D94563A0C9478C8EC
:100230000C94E1CB0D94713B0C9472C30C94926EB0
:100240000C94B7BA0C9437730D9421290D94E402E1
:100250000C9463C30D9478280D94E6040C94CA7230
:100260000C94E0CF0C9473890C94C48A0D94843A56
:100270000C94FB3F0C9456CA0C941B860C94F06EA5
:100280000C9475890C94B2720D9475280C946EC3FD
:100290000C94BE720C94F0700D94763B0C94DF6756
:1002A0000D94D13B0D9432030C94BCC60C941E6784
:1002B0000C948BCE0C9482400C94D06C0C948540A2
:1002C0000C94F5720C94F8730D94AE3B0D94B82A0F
:1002D0000D947B280D94723A0C941A400C940E7570
:1002E0000C9453CF0C949A720C94EC660C94A072FC
:1002F0000D94F6020C9420A50D946C3B0D94803A5D
:100300000C949C9D0C9447CF0D94453A0D94EA02B1
:100310000D94E53B0C944DCF0C940B670D94DC04CD
:100320000C943D670D94E1040D948A3B0D94603A62
:100330000C94DD6E0D94033C0C944ACF0C94F3693D
:100340000C94D26C0C941C6F0C9482D30D94C23B11
:100350000D9414070C947FD30C94B8720C946F898D
:100360000C94D5CB0D94943B0C94D9CB0C945CCFCE
:100370000C941D750C9458C30C94D86C0C9450CFED
:100380000C942DF90C9435C30C94D46C0D944B3A09
:100390000D94CF2A0C94D0720C9471CF0D949C3B89
:1003A0000C94AACF0C945C670D94B22A0D94A43BD4
:1003B0000C9406400D947C2A0C94B1C90D948B2AA0
:1003C0000C94EDCB0D94C6090C94D36F0D94CA0216
:1003D0000C94FBCF0D94B83B0C9459CF0D94AE44C4
:1003E0000C94C9CB0D9480050D94C5020D94683A08
:1003F0000C94A6720C94AC720C948FCF0D94DB3BD2
:100400000C94D1CB0C94C46E0C94606E0C9485D378
:100410000D947C3A0C94CC740D9424290C94C16CEA
:100420000C9439A50D94F13C0C943BC40D948805B3
:100430000C9420400D94F93B0C94F4D60C94DA8E75
:100440000D9417080C94C4720C94096B0D946E3AB9
:100450000C94E0BA0C94486F0D94EB040C94036F69
:100460000D94BB020D94EF3B0D94413A0C9413672D
:100470000C9476760D94C0020C94FEC40C94718991
:100480000C9456CF0C94DF870C94C5CF0C9423406A
:100490000C9492C90C946ECF0C9489BA0D94893A3D
:1004A0000C9416400D94803B0C94D66C0C948E6F7B
:1004B0000C94796E0D942C050C94AB6E0C945B78B7
:1004C0000D94643A0C94D6720D945A3A0C949A6F27
:1004D0000C946CCF0C9478C30C94BE670C945FBAE8
:1004E0000C94E5CB0C94456E0C9481400C94BE7634
:1004F0000C9469710C94E4CA0C94D76F0D94EB289A
:100500000C9470C30C94DDCB0C94EA3F0C945FCF39
:100510000D94523A0D94F0020D944F3A0C942F6FB3
:100520000D94763A0C94C5CB0C94436E0C94124007
:100530000C94E43F4E414E494E495459494E46CDE4
:10054000CCCC3D0AD7233C17B7D13877CC2B32958A
:1005500095E6241FB14F0A000020410000C8420068
:10056000401C4620BCBE4CCA1B0E5AAEC59D740032
:10057000407A10F35A00A0724E18090010A5D4E872
:100580000000E87648170000E40B54020000CA9A05
:100590003B000000E1F50500008096980000004057
:1005A000420F000000A0860100000010270000009C
:1005B00000E803000000006400000000000A0000E2
:1005C0000000000100000000002C76D888DC674F96
:1005D0000823DFC1DFAE59E1B1B796E5E3E453C6C6
:1005E0003AE651997696E8E6C28426EB898C9B62BE
:1005F000ED407C6FFCEFBC9C9F40F2BAA56FA5F468
:1006000090055A2AF75C936B6CF9676DC11BFCE08F
:10061000E40D47FEF520E6B500D0ED902E030094E2
:100620003577050080841E080000204E0A00000077
:10063000C80C333333330F986E12831141EF8D2181
:1006400014893BE65516CFFEE6DB18D1844B381BE8
:10065000F77C1D901DA4BBE424203284725E2281AD
:1006600000C9F124ECA1E53D27434F4D4D554E49BE
:10067000434154494F4E0044525952554E00455241
:10068000524F525300494E464F004543484F004792
:10069000322F47332062616420706172616D65742E
:1006A0006572730A00536C6565702E2E2E005A20F9
:1006B00050726F62652050617374204265640A0055
:1006C0005A2050726F6265205061737420426564D5
:1006D00000486F6D652058592066697273740A006E
:1006E000486F6D65205859204669727374004D65D6
:1006F000736820706F696E742063616E6E6F742012
:100700006265207265736F6C7665640A00436C697C
:10071000636B20746F20526573756D652E2E2E00ED
:100720004E6F204D6F76652E00456E642066696CB5
:1007300065206C6973740A00426567696E2066699A
:100740006C65206C6973740A00286E6F2066696C92
:1007500065290043757272656E742066696C653A2E
:1007600020005344207072696E74696E672062794C
:10077000746520004E6F74205344207072696E744B
:10078000696E670A0044656C6574696F6E20666106
:10079000696C65642C2046696C653A200046696C7A
:1007A000652064656C657465643A00256979202567
:1007B0006964202569682025696D202569730050CA
:1007C00072696E742074696D653A20004520255366
:1007D000006F66660044454255473A004D3131335B
:1007E00020530042656420436F6F6C696E672E2E44
:1007F0002E004265642048656174696E672E2E2E56
:100800000043522D3130205632204F46462E0043B1
:1008100048414D4245525F54454D50455241545513
:100820005245004D4F54494F4E5F4D4F4445530084
:10083000544845524D414C5F50524F5445435449E2
:100840004F4E004155544F5245504F52545F534400
:100850005F5354415455530050524F4D50545F53C1
:100860005550504F525400454D455247454E4359FF
:100870005F50415253455200434153455F4C4947F5
:1008800048545F4252494748544E45535300544FD1
:1008900047474C455F4C494748545300534F4654D3
:1008A000574152455F504F574552004255494C44BD
:1008B0005F50455243454E54004C4556454C494EB9
:1008C000475F44415441005A5F50524F42450041F6
:1008D00055544F4C4556454C005052494E545F4A72
:1008E0004F420050524F4752455353004155544FC9
:1008F0005245504F52545F54454D5000564F4C5541
:100900004D45545249430042494E4152595F464970
:100910004C455F5452414E5346455200534552494F
:10092000414C5F584F4E5F584F4646004649524D26
:10093000574152455F4E414D453A4D61726C696E6B
:1009400020322E302E342E342028476974487562A8
:100950002920534F555243455F434F44455F5552FD
:100960004C3A68747470733A2F2F676974687562B3
:100970002E636F6D2F4D61726C696E4669726D7773
:100980006172652F4D61726C696E2050524F544FE9
:10099000434F4C5F56455253494F4E3A312E30200B
:1009A0004D414348494E455F545950453A43522DB5
:1009B00031302056322045585452554445525F43F9
:1009C0004F554E543A3120555549443A6365646554
:1009D000326132662D343161322D343734382D395D
:1009E0006231322D633535633632663336376666AB
:1009F0000A002F2F20004D31343520533C696E649E
:100A000065783E206F7574206F662072616E676531
:100A10002028302D31290A00416363656C657261BD
:100A200074696F6E3A20500020466C6F773A200050
:100A300050726F7465637465642050696E0A00209B
:100A40006F7574206F662072616E67650A002053AF
:100A50006572766F200020643A0020693A002070A9
:100A60003A006469730043290A0061626C6564207E
:100A7000286D696E2074656D702000436F6C642072
:100A800065787472756465732061726520004669CB
:100A90006C616D656E742072756E6F757420004D9B
:100AA00034323120696E636F7272656374207061D5
:100AB00072616D657465722075736167650A004FB8
:100AC000666673657473204170706C696564004577
:100AD00072723A20546F6F206661722100546F6FFA
:100AE000206661722066726F6D2072656665726540
:100AF0006E636520706F696E740A00454550524FF1
:100B00004D204F4B0A008A0685067E067706690649
:100B10004572726F722077726974696E6720746FA4
:100B200020454550524F4D210A00627573793A2095
:100B300070617573656420666F7220696E7075747C
:100B40000A00627573793A20706175736564206676
:100B50006F7220757365720A00627573793A20703E
:100B6000726F63657373696E670A004D36303000CB
:100B70004E6F20436865636B73756D207769746889
:100B8000206C696E65206E756D6265722C204C61FB
:100B90007374204C696E653A2000636865636B73FB
:100BA000756D206D69736D617463682C204C617381
:100BB00074204C696E653A20004C696E65204E7554
:100BC0006D626572206973206E6F74204C6173745E
:100BD000204C696E65204E756D6265722B312C203C
:100BE0004C617374204C696E653A20004D31313090
:100BF0000053442072656164206572726F720A004E
:100C00002121204B494C4C2063617573656420623F
:100C100079204B494C4C20627574746F6E2F70694B
:100C20006E0A002121204B494C4C2063617573658D
:100C30006420627920746F6F206D75636820696E1F
:100C40006163746976652074696D65202D20637514
:100C50007272656E7420636F6D6D616E643A200010
:100C6000506C65617365205265736574005052491C
:100C70004E5445522048414C5445440025533A2097
:100C80002553004B494C4C45442E20005072696E50
:100C90007465722068616C7465642E206B696C6C7D
:100CA00028292063616C6C6564210A0036372603AD
:100CB0003C3D380E2E303E131A1C1808440AFF43E0
:100CC0000809070001206D61783A2000206D696EE7
:100CD0003A2000656E7175657565696E6720220042
:100CE0006F6B00526573656E643A2000236465661D
:100CF000696E652044454641554C545F004B642065
:100D0000004B6920004B702000504944204175740D
:100D10006F74756E652066696E69736865642120FD
:100D200050757420746865206C617374204B702C4E
:100D3000204B6920616E64204B6420636F6E737476
:100D4000616E74732066726F6D2062656C6F7720C0
:100D5000696E746F20436F6E66696775726174693E
:100D60006F6E2E680A00504944204175746F747587
:100D70006E65206661696C6564212074696D656FBC
:100D800075740A000A20436C6173736963205049CB
:100D900044200A00204B643A2000204B693A20008E
:100DA000204B703A20000A204E6F206F76657273D8
:100DB000686F6F740A002054753A2000204B753A12
:100DC000200020643A200020626961733A200050BC
:100DD0004944204175746F74756E65207374617237
:100DE000740A00504944204175746F74756E652013
:100DF0006661696C6564212054656D70657261740B
:100E000075726520746F6F20686967680A005049C1
:100E100044204175746F74756E65206661696C65F8
:100E20006421204261642065787472756465722063
:100E30006E756D6265720A004572723A207574664D
:100E40003820666F6E74206E6F7420696E697469E5
:100E5000616C697A65642E00000C0D00FE070226A5
:100E600003BC017FFE08FE08FE05080806000040DE
:100E7000F0C88888987810050808060000C0F8882F
:100E800088888888F80505050600012030F830209C
:100E90000508080600002070F820202020E0050941
:100EA000090600FF2070A8A8B888887020050606EB
:100EB000060001E08CEA8C8A0A0509090600FFF8A1
:100EC000A88888888888A8F8050A0A0600FE2050A5
:100ED00050505088A8A8887003030306000340A060
:100EE00040FFFFFFFFFFFFFFFFFFFFFFFFFFFFFFD1
:100EF000FFFFFFFFFFFFFF0000000605FF010707E0
:100F000006020080808080800080030303060105C4
:100F1000A0A0A005060606000050F85050F85005A5
:100F200009090600FF2070A8A07028A870200507F6
:100F300007060000C8C8102040989805070706005B
:100F40000040A0A040A8906801030306020580802D
:100F5000800309090601FF20404080808040402036
:100F60000309090601FF8040402020204040800501
:100F7000070706000020A8702070A82005050506B8
:100F800000012020F820200203030601FFC040805A
:100F9000050101060003F8020202060100C0C005B7
:100FA00007070600000810102040408005070706CC
:100FB0000000708898A8C8887003070706010040E1
:100FC000C040404040E00507070600007088081058
:100FD0002040F8050707060000F808103008887060
:100FE00005070706000010305090F810100507079D
:100FF000060000F880F00808887005070706000062
:10100000304080F0888870050707060000F8081057
:101010001020202005070706000070888870888847
:1010200070050707060000708888780810600205C0
:1010300005060100C0C000C0C00206060601FFC0D0
:10104000C000C0408003050506010120408040200B
:10105000050303060002F800F803050506010180F8
:1010600040204080050707060000708810202000FF
:10107000200507070600007088B8A8B8807005072B
:1010800007060000708888F888888805070706002A
:1010900000F04848704848F00507070600007088CF
:1010A0008080808870050707060000F0484848489F
:1010B00048F0050707060000F88080F08080F805FA
:1010C0000707060000F88080F0808080050707068B
:1010D00000007088808098887005070706000088E7
:1010E0008888F8888888030707060100E0404040A8
:1010F0004040E0050707060000381010101090600F
:101100000507070600008890A0C0A0908805070783
:10111000060000808080808080F8050707060000B8
:1011200088D8A8888888880507070600008888C8A6
:10113000A89888880507070600007088888888882E
:1011400070050707060000F08888F080808005079A
:101150000706000070888888A890680507070600C1
:1011600000F08888F0A090880507070600007088C6
:101170008070088870050707060000F820202020EE
:101180002020050707060000888888888888700561
:101190000707060000888888885050200507070642
:1011A000000088888888A8A85005070706000088DE
:1011B000885020508888050707060000888850203E
:1011C000202020050707060000F80810204080F8BE
:1011D0000309090601FFE080808080808080E005AF
:1011E0000707060000804040201010080309090688
:1011F00001FFE020202020202020E005030306003E
:10120000052050880501010600FEF80303030601CE
:1012100005804020050505060000700878887805DF
:1012200007070600008080F0888888F0050505061D
:1012300000007080808870050707060000080878A5
:10124000888888780505050600007088F08070059C
:101250000707060000304840E04040400507070609
:1012600000FE7088888878087005070706000080EF
:1012700080F0888888880307070601004000C04086
:101280004040E00409090601FE1000301010101063
:10129000906005070706000080808890E090880332
:1012A0000707060100C04040404040E00505050634
:1012B0000000D0A8A8A8A8050505060000B0C888A9
:1012C000888805050506000070888888700507076E
:1012D0000600FEF0888888F080800507070600FE7B
:1012E00078888888780808050505060000B0C88059
:1012F000808005050506000078807008F005070766
:101300000600002020F82020201805050506000012
:101310008888889868050505060000888888502018
:101320000505050600008888A8A8500505050600E3
:101330000088502050880507070600FE88888850DE
:10134000204080050505060000F8102040F803093C
:10135000090601FF2040404080404040200109092B
:101360000602FF80808080808080808003090906DB
:1013700001FF8040404020404040800503030600BC
:101380000248A890FF4F46460A004661646520481F
:1013900065696768742000426564204C6576656CF9
:1013A000696E6720004661696C656420746F206512
:1013B0006E61626C6520426564204C6576656C697F
:1013C0006E670A00496E76616C6964206D657368AA
:1013D0002E0A0050726F62696E6720506F696E74DA
:1013E0000025532025692F25690050726F62696EB0
:1013F00067206D65736820706F696E742000202807
:1014000044525952554E2900473239204175746F64
:1014100020426564204C6576656C696E67003F20EC
:10142000284C2C522C462C4229206F7574206F6654
:1014300020626F756E64732E0A003F28562965720C
:10144000626F7365206C6576656C20696D706C6188
:10145000757369626C652028302D34292E0A00428C
:101460006164205A2076616C75650A004E6F2062B7
:10147000696C696E65617220677269640A0044650F
:1014800076696174696F6E0025533A2025730053A5
:1014900074616E6461726420446576696174696F19
:1014A0006E3A20002052616E67653A20004D6561FA
:1014B0006E3A200046696E6973686564210A0020EF
:1014C00072616E67653A2000207369676D613A202A
:1014D00000206D65616E3A20003A207A3A200020A3
:1014E0006F662000476F696E6720746F3A2058005E
:1014F00043570A00206469723A0020616E676C6588
:101500003A005374617274207261646975733A00B1
:101510004D343820506F696E740025533A2025648D
:101520002F256400506F736974696F6E696E672050
:101530007468652070726F62652E2E2E0A003F4E11
:10154000756D626572206F66206C65677320696EC9
:10155000206D6F76656D656E74206E6F7420706C93
:1015600061757369626C652028302D3135292E0A2A
:10157000003F2028582C5929206F7574206F662051
:10158000626F756E64732E0A003F53616D706C65F7
:101590002073697A65206E6F7420706C6175736951
:1015A000626C652028342D3530292E0A004D3438E0
:1015B000205A2D50726F62652052657065617461AA
:1015C00062696C69747920546573740A0047323615
:1015D0002048656174696E67204E6F7A7A6C650089
:1015E0004732362048656174696E67204265640041
:1015F00057616974696E6720666F722068656174EF
:1016000075702E0A004669786564204C656E6774B3
:1016100068205072696D6500446F6E652050726974
:101620006D696E67004D616E75616C207072696DD9
:10163000696E672E2E2E004732362043616E636539
:101640006C6564004C656176696E672047323600D0
:101650003F53706563696669656420582C5920633F
:101660006F6F7264696E617465206F7574206F6648
:1016700020626F756E64732E0A003F2852296570D0
:101680006561742076616C7565206E6F7420706C76
:1016900061757369626C653B206D7573742062655A
:1016A000206174206C6561737420312E0A003F53F1
:1016B0007065636966696564206E6F7A7A6C65200F
:1016C00074656D7065726174757265206E6F7420DB
:1016D000706C61757369626C652E0A003F537065AA
:1016E0006369666965642066696C616D656E742006
:1016F00073697A65206E6F7420706C6175736962AE
:101700006C652E0A003F53706563696669656420E5
:101710007072696D65206C656E677468206E6F7499
:1017200020706C61757369626C652E0A003F53709E
:1017300065636966696564206E6F7A7A6C6520738B
:10174000697A65206E6F7420706C61757369626C64
:10175000652E0A003F52657472616374696F6E2072
:101760004D756C7469706C696572206D7573742049
:101770006265207370656369666965642E0A003F5F
:10178000537065636966696564205265747261634C
:1017900074696F6E204D756C7469706C6965722028
:1017A0006E6F7420706C61757369626C652E0A00CF
:1017B0003F537065636966696564206C6179657221
:1017C00020686569676874206E6F7420706C61753D
:1017D0007369626C652E0A0043292E0A003F53701C
:1017E00065636966696564206265642074656D700F
:1017F00065726174757265206E6F7420706C6175AE
:101800007369626C65202834302D004732362073AE
:1018100074617274696E672E2E2E0A0050726F62A8
:10182000652059204F66667365740050726F62655B
:101830002058204F66667365740045737465707335
:101840002F6D6D005A73746570732F6D6D00597331
:10185000746570732F6D6D005873746570732F6DA0
:101860006D00496E6974004D34323800496E6974F8
:1018700069616C697A6520454550524F4D0053743B
:101880006570732F6D6D0050726F6265204F6666D4
:101890007365747300416363656C65726174696F2D
:1018A0006E0056656C6F63697479005365742048E7
:1018B0006F6D65204F666673657473004E6578744E
:1018C00020436F726E657200446F6E65004E6578DE
:1018D0007400486F6D696E672058595A004C6576E0
:1018E000656C20436F726E6572730046616465209B
:1018F000486569676874004732380A473239004CD6
:101900006576656C20426564004C6F6164206D6D86
:1019100000556E6C6F6164206D6D0046696C2E2001
:101920004469612E004520696E206D6DC2B300656B
:1019300063686F3A004572726F723A0042696C696F
:101940006E656172204C6576656C696E67204772C2
:1019500069643A0A0053544F505045442E200050B9
:1019600072696E7465722073746F70706564206440
:10197000756520746F206572726F72732E204669D0
:101980007820746865206572726F7220616E6420C1
:10199000757365204D39393920746F207265737401
:1019A0006172742E202854656D7065726174757251
:1019B000652069732072657365742E2053657420E9
:1019C00069742061667465722072657374617274E3
:1019D000696E67290A0021212053544F502063610A
:1019E0006C6C65642062656361757365206F662049
:1019F000424C546F756368206572726F72202D209F
:101A0000726573746172742077697468204D393916
:101A1000390A00486F74656E6420746F6F20636FBD
:101A20006C640A004D3630303A20546F6F20436F9B
:101A30006C640053656E64204D31303820746F2023
:101A4000726573756D650A00496E73657274206600
:101A5000696C616D656E7420616E642073656E647F
:101A6000204D3130380A0053656E64204D313038D6
:101A700020746F2068656174206E6F7A7A6C650AD5
:101A80000020082046616374002008204D61780022
:101A90002008204D696E004175746F74656D70008B
:101AA0005654726176204D696E00566D696E00560F
:101AB0006D6178204500566D6178205A00566D6141
:101AC00078205900566D6178205800416D6178206A
:101AD0004500416D6178205A00416D6178205900C0
:101AE000416D6178205800412D54726176656C001B
:101AF000412D5265747261637400416363656C00CB
:101B000056652D4A65726B00565A2D4A65726B00F8
:101B100056592D4A65726B0056582D4A65726B00F6
:101B20000000A24300009B430000C843000080BFA8
:101B300000000000000000000000F0410000F04143
:101B4000000000410202040000A0400000A040008C
:101B5000000040FFFFFF0000000100000001000046
:101B60008000555555000000400033333300AAAAC9
:101B70002A004992240000002000C7711C00999996
:101B80001900D1451700555515003BB113002449E4
:101B9000120011111100000010000F0F0F00E338A8
:101BA0000E0043790D00CCCC0C00C3300C00E8A231
:101BB0000B0064210B00AAAA0A00703D0A009DD800
:101BC0000900427B090092240900DCD308008888C0
:101BD00008001042080000000800F0C107008787D5
:101BE000070075500700711C07003EEB0600A1BC02
:101BF00006006990060066660600703E06006118E1
:101C0000060017F4050074D105005BB00500B29022
:101C10000500627205005555050078390500B81EAB
:101C20000500050505004EEC040087D40400A1BDA5
:101C3000040090A7040049920400C17D0400EE69ED
:101C40000400C7560400444404005C320400082128
:101C5000040041100400000004003FF00300F8E01D
:101C6000030026D20300C3C30300CCB503003AA887
:101C700003000A9B0300388E0300C08103009F7598
:101C80000300D0690300505E03001D530300344875
:101C90000300913D03003333030016290300381F6E
:101CA000030097150300300C0300030303000BFA35
:101CB000020049F10200BAE802005CE002002DD8FF
:101CC00002002DD0020059C80200B0C0020031B994
:101CD0000200DAB10200AAAA0200A0A30200BC9C82
:101CE0000200FA9502005C8F0200DF880200828207
:101CF0000200457C02002776020027700200436A3A
:101D000002007C640200D05E02003F590200C8530A
:101D10000200FFFDFCFAF8F6F4F2F0EEECEAE9E777
:101D2000E5E3E1E0DEDCDAD9D7D5D4D2D0CFCDCB34
:101D3000CAC8C7C5C3C2C0BFBDBCBAB9B7B6B4B3C1
:101D4000B2B0AFADACAAA9A8A6A5A4A2A1A09E9D21
:101D50009C9A99989795949392908F8E8D8B8A895F
:101D600088878684838281807F7E7D7B7A7978777D
:101D7000767574737271706F6E6D6C6B6A6968677B
:101D8000666564636261605F5E5D5C5B5A5958586A
:101D90005756555453525150504F4E4D4C4B4A4A42
:101DA0004948474646454443424241403F3E3E3D06
:101DB0003C3B3B3A393838373635353433323231BB
:101DC00030302F2E2E2D2C2B2B2A29292827272661
:101DD000252524232322212120201F1E1E1D1C1CFB
:101DE0001B1B1A1919181817161615151413131288
:101DF000121111100F0F0E0E0D0D0C0C0B0A0A090B
:101E00000908080707060605050404030302020182
:101E100000005761726E696E673A20486F6D696E97
:101E2000672042756D702044697669736F72203C3B
:101E300020310A005061757365205072696E74001C
:101E40005072696E742041626F72746564004D3225
:101E50003520500A4D32340053657474696E6773CF
:101E60002053746F72656420280000000000000099
:101E70000000000000002062797465733B206372EB
:101E80006320004E6F20454550524F4D2E0A0020D2
:101E90005200454550524F4D206461746173697A18
:101EA00065206572726F722E0A002073746F7265FE
:101EB000642073657474696E6773207265747269E7
:101EC000657665642028004572723A204545505277
:101ED0004F4D2043524300202863616C63756C6151
:101EE00074656429210A0020213D20004545505297
:101EF0004F4D20435243206D69736D6174636820B8
:101F00002D202873746F7265642920004572723A1F
:101F100020454550524F4D20496E64657800496E0A
:101F20006465783A20004572723A20454550524F18
:101F30004D2056657273696F6E00204D61726C6939
:101F40006E3D563736290A00454550524F4D207692
:101F5000657273696F6E206D69736D61746368205B
:101F600028454550524F4D3D0048617264636F648F
:101F700065642044656661756C742053657474698A
:101F80006E6773204C6F616465640A003B2000201B
:101F9000204D363033200020204D34313220530084
:101FA00046696C616D656E742072756E6F75742014
:101FB00073656E736F723A0020550046696C616DEF
:101FC000656E74206C6F61642F756E6C6F61642038
:101FD0006C656E677468733A0020204D3835312087
:101FE00058005A2D50726F6265204F666673657493
:101FF0000020204D33303420500020204D3330312C
:102000002050005049442073657474696E67733AB8
:102010000020460020480020204D31343520530058
:102020004D6174657269616C2068656174757020BA
:10203000706172616D65746572733A00204A0020A8
:1020400020473239205720490020204D343230209B
:1020500053004175746F20426564204C6576656C51
:10206000696E673A0020204D323036205800486FA4
:102070006D65206F66667365743A0020204D3230BE
:1020800035204200416476616E6365643A20423CCB
:102090006D696E5F7365676D656E745F74696D659C
:1020A0005F75733E20533C6D696E5F666565647253
:1020B0006174653E20543C6D696E5F747261766533
:1020C0006C5F66656564726174653E20583C6D6145
:1020D000785F785F6A65726B3E20593C6D61785F0E
:1020E000795F6A65726B3E205A3C6D61785F7A5FFA
:1020F0006A65726B3E20453C6D61785F655F6A651D
:10210000726B3E0020540020204D323034205000AD
:10211000416363656C65726174696F6E2028756ECA
:102120006974732F7332293A20503C7072696E744F
:102130005F616363656C3E20523C726574726163DB
:10214000745F616363656C3E20543C7472617665B4
:102150006C5F616363656C3E0020204D323031203E
:1021600058004D6178696D756D20416363656C65DC
:10217000726174696F6E2028756E6974732F733283
:10218000293A0020204D3230332058004D617869C3
:102190006D756D2066656564726174657320287560
:1021A0006E6974732F73293A0053746570732070CD
:1021B000657220756E69743A0020204D32303020EF
:1021C00044300A0020204D32303020440020446941
:1021D0007361626C65640A0046696C616D656E745A
:1021E0002073657474696E67733A0020204D313432
:1021F000392043203B20556E69747320696E20435B
:10220000656C736975730A0020286D6D29002020A4
:10221000473231202020203B20556E69747320699D
:102220006E206D6D00486F6D696E67204661696C48
:1022300065640000401C4500401C450000C8420089
:1022400000B4420000A0420000A0420000C84300C9
:1022500000BE42F4010000F40100006400000088A8
:102260001300007C3C3E5E2B3D3F2F5B5D3B2C2AE8
:10227000225C0043616E6E6F74206F70656E207318
:10228000756264697220002053697A653A200053B0
:10229000442063617264206F6B0A006F70656E5238
:1022A0006F6F74206661696C65640A00766F6C7587
:1022B0006D652E696E6974206661696C65640A00DB
:1022C000534420696E6974206661696C0A004D325E
:1022D000332025730046696C652073656C656374F3
:1022E00065640A0046696C65206F70656E65643AC6
:1022F0002000454E4420535542524F5554494E45B7
:102300000A002220706F73002220706172656E7463
:102310003A2200535542524F5554494E45204341AD
:102320004C4C207461726765743A2200747279694A
:102330006E6720746F2063616C6C207375622D670B
:10234000636F64652066696C6573207769746820C3
:10235000746F6F206D616E79206C6576656C732E7D
:10236000204D4158206C6576656C2069733A310ABE
:102370000057726974696E6720746F2066696C65B6
:102380003A2000667265736800646F696E67004E7C
:102390006F7720000254656D7065726174757265A7
:1023A0000050726568656174204142530050726547
:1023B0006865617420504C410050726F6265205A0C
:1023C000204F6666736574004D61696E00507265DA
:1023D0006865617420504C4120426564005072650C
:1023E0006865617420504C4120456E6400507265F0
:1023F000686561742041425320456E6400507265E7
:1024000068656174204142532042656400436F6FE8
:102410006C646F776E0046616E2053706565642052
:102420007E00466C6F7700436F6E666967757261F8
:1024300074696F6E00313230004245443A45504372
:102440004F53203130304B0052756E6177617920E7
:1024500057617463683A204F4E004D61782054658F
:102460006D7000323530004D696E2054656D70001E
:10247000350045313A204550434F53203130304BE1
:10248000005053550047656E657269630050726F66
:10249000746F636F6C00312E3000426175640031DF
:1024A000313532303000437265616C697479334480
:1024B0002052414D50530042696C696E6561722033
:1024C0004C6576656C696E670045787472756465F5
:1024D00072730043522D3130205632003230323088
:1024E0002D30322D323700546865726D6973746F08
:1024F000727300426F61726420496E666F005072A1
:10250000696E74657220496E666F0053746F700057
:102510004368616E67652046696C616D656E740025
:102520005072656865617420437573746F6D004205
:1025300061636B004D3231004368616E6765204D09
:10254000656469610041626F7574205072696E74D0
:102550006572004D36303020423000526573756D23
:1025600065205072696E740054756E650053746F07
:1025700070205072696E74004E6F204D6564696101
:1025800000496E666F2053637265656E005061721C
:102590006B696E672E2E2E000000576169742066ED
:1025A0006F720066696C616D656E74206368616E40
:1025B000676500746F207374617274005761697489
:1025C00020666F720066696C616D656E7420756E51
:1025D0006C6F616400004E6F7A7A6C65206865618B
:1025E00074696E6700506C6561736520776169740A
:1025F0002E2E2E0000507265737320627574746FF6
:102600006E00746F2068656174206E6F7A7A6C65F5
:102610000000496E736572742066696C616D656E49
:102620007400616E642070726573732062757474D7
:102630006F6E00746F20636F6E74696E75650057FE
:1026400061697420666F720066696C616D656E7495
:10265000206C6F6164000050726573732042757462
:10266000746F6E00746F20726573756D6520707283
:10267000696E7400005761697420666F7220707211
:10268000696E7400746F20726573756D652E2E2EE1
:1026900000005761697420666F720066696C616D35
:1026A000656E7420707572676500004C6F61642000
:1026B00053657474696E67730053746F7265205349
:1026C000657474696E677300416476616E636564F6
:1026D0002053657474696E677300554E4C4F4144C6
:1026E0002046494C414D454E540046494C414D45CC
:1026F0004E54204348414E474500436D643A2053B1
:10270000746F7700436D643A2053572D4D6F6465A5
:1027100000436D643A204465706C6F7900436D64CA
:102720003A2053656C662D5465737400436D643AAA
:102730002052657365740046616E20537065656450
:1027400000526573746F72652044656661756C74C0
:102750007300507265686561742041425320436F75
:102760006E66005072656865617420504C4120436C
:102770006F6E660052756E6F75742053656E736F61
:102780007200424C546F756368004D3730322054EC
:102790002564004D36303020423020542564004DF1
:1027A000373032203B2564004D37303120542564CA
:1027B00000436F6E74696E756500507572676520B1
:1027C0006D6F726500524553554D45204F50544929
:1027D0004F4E533A005052494E54205041555345A4
:1027E000440020204E6F7A7A6C653A20005072695E
:1027F0006E742066726F6D204D6564696100205AA9
:102800003A200020593A200042656420583A2000BE
:102810004D6F76652025736D6D004D6F76652030A8
:102820002E316D6D004D6F766520316D6D004D6FF1
:1028300076652031306D6D004D6F76652041786989
:102840007300486F74656E6420746F6F20636F6CE3
:1028500064004578747275646572004D6F7665200A
:102860005A004D6F76652059004D6F7665205800EF
:1028700050726F62696E67204661696C65640A0018
:1028800050726F62696E67204661696C65640024EE
:10289000F4D43050C38E20C2A24017828B70111224
:1028A0007A910D816CD90AA861E108C75866076161
:1028B0005143061E4B5D05C145A7041A4111040989
:1028C0003D9803713931034036DB0265339102D400
:1028D000305402802E1D02632CEE01752AC501B012
:1028E00028A001102781018F2564012B244B01E0D2
:1028F000223401AC211F018D200D01801FFC0084BA
:102900001EED00971DDF00B81CD200E61BC600209C
:102910001BBC00641AB200B219A8000A19A0006A10
:10292000189900D117910040178B00B5168400311B
:10293000167E00B31579003A157300C7146F00585E
:10294000146A00EE1366008813630025135E00C747
:10295000125B006C12570015125400C11151007027
:10296000114F0021114B00D61049008D1047004631
:1029700010440002104200C00F4000800F3E004291
:102980000F3C00060F3B00CB0E3800930E37005C67
:102990000E3500270E3400F30D3200C10D310090CA
:1029A0000D3000600D2E00320D2D00050D2C00D9CC
:1029B0000C2B00AE0C2900850C29005C0C2700357F
:1029C0000C27000E0C2600E80B2400C40B2400A0EA
:1029D0000B23007D0B23005A0B2100390B2100181B
:1029E0000B2000F80A1F00D90A1E00BB0A1E009D1A
:1029F0000A1D00800A1D00630A1C00470A1B002CE8
:102A00000A1B00110A1A00F7091A00DD091900C48F
:102A1000091900AB091900920917007B0918006316
:102A20000917004C09160036091600200916000A7D
:102A3000091500F5081500E0081400CC081400B8CA
:102A4000081400A4081400900813007D0812006BFD
:102A50000813005808120046081200340811002319
:102A60000811001208110001081100F0071000E021
:102A7000071000D0071000C0071000B0070F00A11A
:102A800007100091070E0083070F0074070F006501
:102A9000070E0057070E0049070E003B070D002EDA
:102AA000070E0020070D0013070D0006070D00F9A3
:102AB000060C00ED060D00E0060C00D4060C00C864
:102AC000060C00BC060C00B0060C00A4060B009916
:102AD000060C008D060B0082060B0077060B006CBF
:102AE000060B0061060A0057060B004C060A00425E
:102AF000060A0038060A002E060A0024060A001AF2
:102B0000060A001006090007060A00FD050900F480
:102B1000050900EB050900E2050900D9050900D007
:102B2000050900C7050900BE050900B5050800AD87
:102B3000050800A50509009C050800940508008CFF
:102B4000050800840508007C050800740508006C71
:102B5000050700650508005D050700560508004EDD
:102B60000507004705070040050800380507003144
:102B70000507002A050700230507001C05060016A7
:102B80000507000F0507000805060002050700FB02
:102B9000040600F5040700EE040600E8040600E25F
:102BA000040700DB040600D5040600CF040600C9B4
:102BB000040600C3040600BD040600B7040600B105
:102BC000040500AC040600A6040600A00405009B52
:102BD00004060095040500900406008A040500859B
:102BE000040500800406007A0405007504050070E1
:102BF0000405006B04050066040500610405005C23
:102C000004050057040500520405004D0405004862
:102C1000040500430405003E0404003A04050035A1
:102C2000040500300404002C0405002704040023DC
:102C30000405001E0404001A040400160405001113
:102C40000404000D04040009040500040404000049
:102C5000040400FC030400F8030400F4030400F07F
:102C6000030400EC030400E8030400E4030400E0B0
:102C7000030400DC030400D8030400D4030400D0E0
:102C8000030400CC030400C8030300C503030024AD
:102C9000F404D9201BC40C5C0E9804C4095F0265BF
:102CA000077101F405F900FB04B30048048700C173
:102CB0000369005803550003034500BE023A00842F
:102CC00002310053022A002902250004022000E4F8
:102CD000011C00C8011900AF0117009801140084FD
:102CE000011300710110006101100051010E004339
:102CF000010D0036010B002B010B0020010B00150C
:102D00000109000C01090003010800FB000800F3A1
:102D1000000800EB000700E4000600DE000600D813
:102D2000000600D2000600CC000500C7000500C266
:102D3000000500BD000400B9000400B5000400B1A6
:102D4000000400AD000400A9000400A5000300A2D7
:102D50000003009F0004009B0003009800030095FF
:102D600000020093000300900003008D0002008B1E
:102D70000003008800020086000200840003008136
:102D80000002007F0002007D0002007B000200794B
:102D90000002007700010076000200740002007259
:102DA000000100710002006F0002006D0001006C64
:102DB0000002006A0001006900020067000100666D
:102DC0000001006500010064000200620001006172
:102DD000000100600001005F0002005D0001005C76
:102DE0000001005B0001005A000100590001005879
:102DF0000001005700010056000100550001005479
:102E00000001005300000053000100520001005176
:102E1000000100500001004F0001004E0000004E74
:102E20000001004D0001004C0001004B0000004B70
:102E30000001004A0001004900010048000000486C
:102E40000001004700010046000000460001004567
:102E50000000004500010044000100430000004361
:102E6000000100420000004200010041000000415A
:102E7000000100400001003F0000003F0001003E53
:102E80000000003E0001003D0000003D0001003C4C
:102E90000000003C0000003C0001003B0000003B43
:102EA0000001003A0000003A00010039000000393A
:102EB0000001003800000038000000380001003731
:102EC0000000003700010036000000360000003628
:102ED000000100350000003500000035000100341D
:102EE0000000003400000034000100330000003313
:102EF0000000003300010032000000320000003208
:102F000000010031000000310000003100010030FC
:102F100000000030000000300001002F0000002FF2
:102F20000000002F0000002F0001002E0000002EE6
:102F30000000002E0001002D0000002D0000002DDB
:102F40000000002D0001002C0000002C0000002CCF
:102F50000000002C0001002B0000002B0000002BC3
:102F60000000002B0001002A0000002A0000002AB7
:102F70000000002A000100290000002900000029AB
:102F8000000000290000002900010028000000289E
:102F90000000002800000028000000280001002791
:102FA0000000002700000027000000270000002785
:102FB0000001002600000026000000260000002678
:102FC000000000260001002500000025000000256B
:102FD000000000250000002500000025000100245D
:102FE0000000002400000024000000240000002451
:102FF0000001002300000023000000230000002344
:103000000000002300000023000000230001002234
:103010000000002200000022000000220000002228
:10302000000000220001002100000021000000211A
:10303000000000210000002100000021000000210C
:1030400000010020000000200000002000000020FF
:1030500000000020000000200000002000000020F0
:103060000001001F0000001F0000001F0000001FE3
:103070000000001F0000001F0000001F0001001ED4
:103080000000001E0000001E0000001E00000039AD
:103090003000003325000087190000B00F0000DB6E
:1030A000080000BD040000740200003F01000000A1
:1030B0000000000000000000000000000000000010
:1030C0000000000000000000000000000000000000
:1030D00000000000000000000000000000000000F0
:1030E00000000000000000000000000000000000E0
:1030F0000060000000000000000000000000000070
:1031000000FF07F8000000000000000000000000C1
:1031100000FFBFFE000000000000000000000000F3
:10312000007FFF1F00000000000000000000000002
:10313000007FC007800000000000000000000000C9
:10314000007F0001C000000000000000000000003F
:1031500000FF0000C0000007800000000000000029
:1031600001FF000060000007C00000000000000038
:10317000073F00006000000780000003E00000003F
:10318000063F00006000000000000003E0000000B7
:10319000003F000021F878E7C3F079C7F000000095
:1031A000003F000023FE78E7C7FCFFE7F0000000C7
:1031B000003F000027DE79E7CF7C7FE7F0000000CA
:1031C000003F0000279F39E7CF3C79E3E000000093
:1031D000003F0000279F39E7CF3C79E3E000000083
:1031E000003F0000279F39E7CF3C79E3E000000073
:1031F000003F000027FF39E7C07C79E3E0000000D2
:10320000001F000067FF39E7C1FC79E3E000000020
:10321000001F000067C03DC7C7FC79E3E000000065
:10322000001F000047803DC7CF3C79E3E00000006D
:10323000001F0000C79F3FC7CF3C79E3E0000000BC
:10324000001F0001878F1FC7CF3C79E3E00000001B
:10325000001F0001878F1FC7CF3C79E3E00000000B
:10326000007FC00707DE1FC7CF7C79E3E0000000C6
:103270000007FFBC03FE1FC7CFFC79E3F00000008E
:1032800000007FF001FC1F87C7BCF9F1F0000000CF
:1032900000005800000000000000000000000000D6
:1032A00000004000000000000000000000000000DE
:1032B000000070000000000000000000000000009E
:1032C00000007DF000000000000000000000000091
:1032D0000001FFFC000000000000000000000000F2
:1032E000007FE00700000000000000000000000078
:1032F000001F0003000000000000000000000000AC
:10330000001F00018000000000000000000000001D
:10331000001F0000C0000003C0000000000000000B
:10332000001F000040000003E0000000000000005B
:10333000001F00006000000000000000000000000E
:10334000001F0000600000000000000000000000FE
:10335000003F000021FC1FC3C3DF3CF0FE00000063
:10336000003F000023FE3FE3C7FF3FF9FF000000DE
:10337000003F000027DE3DF3C7DF3EF9EF8000008D
:10338000003F0000279F38F3C79F3CF9E78000000B
:10339000003F0000279F3CF3C79F3CF9E7800000F7
:1033A000003F000027DF3C03C79F3CF9F00000000E
:1033B000003F000027FF3F03C79F3CF9F8000000D3
:1033C000023F000027FF1FC3C79F3CF8FE0000001C
:1033D000073F000067800FE3C79F3CF87F000000B5
:1033E00003FF0000678F03F3C79F3CF81F800000B6
:1033F00000FF0000C78F39F3C79F3CF9C78000006A
:10340000007F0001C78F3CF3C7FF3CF9E780000055
:10341000007FC003879F3CF3C7FF3CF9E7800000B3
:10342000007FFF1F07FE3FF3C3DF3CF9FF80000072
:1034300000FFFFFE03FE3FE3C01F3CF8FF0000005B
:1034400000FF07F800F80FC3C79F3CF87E0000009C
:10345000007800000000000007FE000000000000EF
:10346000000000000000000003FC0000000000005D
:1034700000000000000000000060000000000000EC
:10348000000000000000000000000000000000003C
:10349000000000000000000000000000000000002C
:1034A000000000000000000000000000000000011B
:1034B000FFFFFFFFFFFFFFFFFFFFFFFFFF0FFFFF0C
:1034C000FFFFFFFFFFFFFFFFFFFFFF1E00000000E9
:1034D00000000000000007FFFF38000000000000AF
:1034E0000000000003FFFF7000000000000000006B
:1034F000000001FFFF60000000000000000000006D
:1035000000FFFF6000000000000000000000007FDE
:10351000FFC000000000000000007800003FFFC076
:103520000FC0FC00000000007818001FFFC03FE142
:10353000FF0000000000783C000FFFC07FF3FF8019
:1035400000000000783C0007FFC0FFFFFFC0000044
:103550000000783C0003FFC1F87F87E00000000016
:1035600078000001FFC1F03F03E000000000780098
:103570000000FFC1E01E01E01F0003E0783C03F003
:103580007FC1E01E01E07FC00FF8783C07FC3FC11F
:10359000E01E01E1FFE01FFC783C0FFE1FC1E01EB2
:1035A00001E3FFF03FFE783C1FFE0FC1E01E01E388
:1035B000F3F83F3E783C3F3F07C1E01E01E7E0FCE7
:1035C0007C1F783C3E1F07C1E01E01E7C07C7C0FDA
:1035D000783C3C0F03C1E01E01E7807C780F783C0B
:1035E0003C0F03C1E01E01E7803C7800783C3C0FB3
:1035F00003C1E01E01E7803C7800783C3C0F03C12A
:10360000E01E01E7803C7800783C3C0F03C1E01EDF
:1036100001E7C03C7800783C3C0F03C1E01E01E3A9
:10362000E03C78007C3C3C0F03C1E01E01E3FF3F1F
:10363000F8007FBC3C0F03C1E01E01E1FF3FF80032
:103640003FBFFC0F03C1E01E01E0FF3FF8001FBFBA
:10365000FC0F03C1E01E01E07F3FF8000FBFFC0F2D
:103660000360000000000000000000000000076090
:1036700000000000000000000000000006700000D4
:10368000000000000000000000000E3800000000F4
:1036900000000000000000001C1E000000000000F0
:1036A000000000000000780FFFFFFFFFFFFFFFFF9B
:1036B000FFFFFFFFF001FFFFFFFFFFFFFFFFFFFF27
:1036C000FFFF80687474703A2F2F6D61726C696EA1
:1036D00066772E6F726700322E302E342E34002023
:1036E00020506C616E6E65724275666665724279D5
:1036F0007465733A20002046726565204D656D6FD4
:1037000072793A2000436F6D70696C65643A204DA0
:10371000617220203920323032300A00204C61732F
:103720007420557064617465643A20323032302DF3
:1037300030322D3237207C20417574686F723A2008
:10374000287072696E746564736F6C69642E636F40
:103750006D2C2043522D313053290A00322E302E49
:10376000342E340A004D61726C696E0020536F660E
:1037700074776172652052657365740A0020576121
:10378000746368646F672052657365740A00204231
:10379000726F776E206F75742052657365740A00BE
:1037A0002045787465726E616C2052657365740A89
:1037B00000506F77657255700A006175746F2563EC
:1037C0002E670047323700446F6E65207072696E55
:1037D00074696E672066696C650A004D3331004D6F
:1037E0003051315331383030006572726F7220774A
:1037F000726974696E6720746F2066696C650A006F
:10380000446F6E6520736176696E672066696C65CA
:103810002E0A004D323900255320256320256320D0
:10382000256320256300205A3A0020593A00656E2E
:103830006473746F7073206869743A200050726901
:103840006E74205061757365640020746F6F206C16
:103850006F6E6720657874727573696F6E20707211
:103860006576656E7465640A0020636F6C6420651C
:103870007874727573696F6E2070726576656E7498
:1038800065640A00486F6D652025732573257320D4
:1038900046697273740043522D31302056322052E3
:1038A000656164792E005072696E74696E672E2EA0
:1038B0002E00220A00556E6B6E6F776E20636F6D5F
:1038C0006D616E643A202200496E76616C696420F5
:1038D00065787472756465720A00202D20496E76D1
:1038E000616C6964206578747275646572206E75A8
:1038F0006D62657220210A00544845524D414C20AA
:1039000052554E4157415900546865726D616C20A3
:1039100052756E61776179004572723A204D415857
:1039200054454D50004D415854454D5020747269D6
:10393000676765726564004572723A204D494E545E
:10394000454D50004D494E54454D502074726967A5
:103950006765726564004D383420582059205A201C
:103960004500202F002042403A0020403A002057D6
:103970003A0070012C0190012701B0012201C00121
:103980001D01F00118011002130130020E01600246
:10399000090190020401C002FF000003FA00400385
:1039A000F5008003F000D003EB002004E600700473
:1039B000E100E004DC004005D700C005D20040066D
:1039C000CD00D006C8008007C3003008BE00F00854
:1039D000B900C009B400B00AAF00B00BAA00D00C07
:1039E000A500000EA000500F9B00C01096005012C2
:1039F000910000148C00C0158700B0178200B01928
:103A00007D00D01B7800001E730040206E009022C5
:103A10006900F024640040275F0090295A00E02BE1
:103A20005500102E500020304B0010324600E0337D
:103A3000410090353C001037370070383200A03913
:103A40002D00B03A2800A03B2300603C1E00103D32
:103A50001900903D1400103E0F00703E0A00C03E59
:103A60000500003F0000403FFBFF803FF6FFC03FE6
:103A7000F1FF3F0043616E63656C004F6666004F67
:103A80006E004D6F74696F6E004175746F20486FE2
:103A90006D65005374617274205072696E740043D6
:103AA000616E6E6F7420656E7465722073756264EA
:103AB00069723A2000022E2E00536F667420456E04
:103AC0006473746F7073004D3834004469736162BD
:103AD0006C65205374657070657273004732380AE4
:103AE0004D343820503130004D34382050726F62E0
:103AF00065205465737400473238205A00486F6D52
:103B000065205A00473238205900486F6D652059AA
:103B100000473238205800486F6D65205800473202
:103B200038002568753A2530326875002568756457
:103B30002025303268753A25303268750020202003
:103B400020202020001FE020102010201010201026
:103B5000202010201030300840048003001FE03F78
:103B6000F03FF03FF01FE01FE03FF03FF03FF00F6D
:103B7000C0078003003FFFF038007030FC3020FCAD
:103B8000102078102030102C00D02E31D02F7BD078
:103B90002F7BD02E31D02C00D02030102078102058
:103BA000FC1030FC303800703FFFF03FFFF0380071
:103BB000703186302387102787902F87D02F03D02E
:103BC0002030102078102078102030102F03D02FB4
:103BD00087D02787902387103186303800703FFFC9
:103BE000F01FFFF81FFFF804104002082002082011
:103BF000041040082080104100104100082080047B
:103C000010400000001FFFF81FFFF86F70656E2066
:103C10006661696C65642C2046696C653A200044D5
:103C20006966663A200046726F6D5374703A0053AD
:103C30007465707065723A00556E4C6576656C3AC5
:103C4000004C6576656C65643A005261773A2020D5
:103C50002020000A4C6F676963616C3A00436F75FE
:103C60006E7420453A004361703A00426162797394
:103C7000746570205A0050726F6265204F666673DB
:103C80006574205A0050726F6265204F66667365D6
:103C9000745A3A20003F5A206F7574206F66207264
:103CA000616E67652028003F59206F7574206F662C
:103CB0002072616E676520282D0020746F20003F00
:103CC00058206F7574206F662072616E67652028BA
:103CD0002D0050726F6265204F66667365742058C0
:103CE000006F70656E005452494747455245440085
:103CF00066696C616D656E74007A5F6D696E0079DE
:103D00005F6D696E00785F6D696E005265706F72ED
:103D100074696E6720656E6473746F70207374616C
:103D20007475730A0020436F756E7420583A0057FB
:103D300041524E494E4721204C6F77205A204A6508
:103D4000726B206D6179206C65616420746F2075E1
:103D50006E77616E746564207061757365732E0A89
:103D600000204D393220580020204D61783A200043
:103D700020204D696E3A2000536F667420656E6492
:103D800073746F70733A200020496E76616C6964B9
:103D900020657874727564657220004D6564696190
:103DA0002052656D6F766564004D656469612049D8
:103DB0006E73657274656400453100626564002C41
:103DC0002073797374656D2073746F7070656421EE
:103DD000204865617465725F49443A200048656116
:103DE00074696E67204661696C656400486561743A
:103DF000696E67206661696C6564004D31313220FF
:103E000053687574646F776E0000002100240027EA
:103E1000002A002D003000330001010000040107DA
:103E2000010A0100002200250028002B002E00318D
:103E300000340002010000050108010B0100002010
:103E4000002300260029002C002F00320000010072
:103E50000003010601090105050505070508080815
:103E600008020202020A0A0808040404040101010B
:103E70000101010101030303030303030304070713
:103E8000070C0C0C0C0C0C0C0C02020202060606B1
:103E900006060606060B0B0B0B0B0B0B0B01021099
:103EA0002020080810204010204080020102010854
:103EB0000402010102040810204080804020100804
:103EC000040201800402018040201008040201085D
:103ED00004020101020408102040800102040810BD
:103EE00020408000000A0B02090C0D0E0807030495
:103EF00001000000000000000000000000000000C1
:103F0000000000000000000000000000000000129F
:103F10001110000000000000000000000000000080
:103F200000000000000000000000EE011202112459
:103F30001FBECFEFD1E2DEBFCDBF00E00CBF13E06C
:103F4000A0E0B2E0ECE9FBEA02E00BBF02C00790A0
:103F50000D92A434B107D9F726E1A4E4B3E001C07F
:103F60001D92AB3EB207E1F71FE1C6E9DFE100E0D9
:103F700006C021970109802FFE010F942452C539F4
:103F8000D10780E00807A9F70F94143E0D94BC55A3
:103F90000C9400002F923F924F925F926F927F920B
:103FA0008F929F92AF92BF92CF92DF92EF92FF9249
:103FB0000F931F93CF93DF93CDB7DEB7E4970FB680
:103FC000F894DEBF0FBECDBF8BAB20914E0328AB64
:103FD00081E080934E0380914A168D3409F495C395
:103FE000843511F40C942631873411F00C942D3162
:103FF00080914816909149168B31910509F420C1A2
:10400000B4F48430910534F482309105DCF597FFE7
:104010002DC077C38531910511F40C942F318A316D
:10402000910509F409C1049709F06BC3C6C08A322F
:10403000910509F486C254F48D31910509F42AC121
:104040000CF418C14E9709F439C15BC38B35910547
:1040500009F4F4C18C35910509F4F5C18A3591054F
:1040600009F04FC310924D030C942F3180918602BA
:10407000882311F40C942F310F948A2C0F94CD21A6
:104080000C942F3120918602222311F40C942F31AD
:1040900011E0029709F010E00F948A2C19821A821D
:1040A0001B821C821D821E821F82188682E50E944E
:1040B0003F5B882309F44BC00E94BF5A6B017C010F
:1040C00020E030E0A9010F94374B882309F455C054
:1040D0008091400290914102A0914202B09143022E
:1040E0008CA39DA3AEA3BFA38091440290914502EF
:1040F000A0914602B09147028CA79DA7AEA7BFA78B
:104100008090090790900A07A0900B07B0900C07C9
:1041100040900D0750900E0760900F0770901007A9
:10412000A50194016CA17DA18EA19FA10F94374B95
:1041300081110C943831A30192016CA57DA58EA547
:104140009FA50F94374B8823C1F00C94383189E434
:104150000E943F5B882331F00E94BF5A69837A83B3
:104160008B839C838AE40E943F5B882331F00E940A
:10417000BF5A6D837E838F83988720E030E0A9014A
:1041800069817A818B819C810F94374B81110C94CA
:10419000EC3120E030E0A9016D817E818F8198852E
:1041A0000F94374B81110C94EC310E94A1818FE860
:1041B00096E00E94B8800C942F3180E50E943F5B0E
:1041C000882329F00F94DD306B017C0103C0C12CE2
:1041D000D12C760183E50E943F5B882361F00E9429
:1041E000BF5A20E030E04AE754E40F949D4B0F940F
:1041F000A0536B017C010E94A89180913C05811124
:1042000005C060E085EA96E00E94E7A40F94463C72
:10421000C60ED71EE81EF91E0F94463CDC01CB01EA
:104220008C199D09AE09BF09B7FD02C00C942F314E
:1042300080E00E94E83AF0CF0E94705B0C942F312E
:104240000E9483F881110C942F318CE0ECE8F2E0AD
:10425000DE01119601900D928A95E1F760E070E021
:1042600080E50F94A02FBE016F5F7F4F0E945FA07B
:104270000C942F3180911A098770873011F00C94BB
:10428000FF3160E08FE40E945B5B81110C942F3161
:104290000C94FF310E9483F881110C942F3180918E
:1042A0003605882311F40C94FA3360E08FE40E9401
:1042B0005B5B81110C942F310C94FA33209127070A
:1042C000309128074091290750912A0760914002B8
:1042D0007091410280914202909143020F942D52BD
:1042E000AB01BC0188E50E94834469837A838B8398
:1042F0009C8320912B0730912C0740912D075091E2
:104300002E0760914402709145028091460290917F
:1043100047020F942D52AB01BC0189E50E948344F2
:104320006D837E838F839887BE016B5F7F4FCE0145
:1043300001960E941A4B882311F40C942F3180E0CF
:104340000E94967C0F94C12461E085E40E945B5B2F
:1043500021E0482FBE016B5F7F4FCE0101960E9486
:10436000E6D76B017C019B01AC010F941F558111B5
:104370005FC089809A80AB80BC8020E030E0A901DA
:10438000C501B4010F94374B87FF05C027E137EB18
:1043900041E558EB04C027E137EB41E558E3C5019F
:1043A000B4010F942D52AB01BC0188E098E20E9449
:1043B00070818D809E80AF80B88420E030E0A901BC
:1043C000C501B4010F94374B87FF05C027E137EBD8
:1043D00041E558EB04C027E137EB41E558E3C5015F
:1043E000B4010F942D52AB01BC0183E098E20E940E
:1043F000708120E030E0A901C701B6010F94374B6E
:1044000087FF05C067E177EB81E598EB04C067E1C2
:1044100077EB81E598E3A70196010F942D52AB014C
:10442000BC018EEF97E20E9470818AE00E94BC3945
:104430000F94A8240F94FA260C942F318FE08093C8
:104440004D030C942F3176E0272E73E0372EE3E1F5
:10445000EE2EE5E0FE2E20E432E03DA32CA3FBE1AE
:10446000CF2EF7E0DF2E00E010E0D1018D911D018D
:104470000E943F5B882309F44BC00E94BF5A2B0166
:104480003C01133049F0F601208131814281538192
:104490000F942C522B013C01ACA1BDA12D913D915B
:1044A0004D915C91C301B2010F942C524B015C0100
:1044B0002DEB37E346E855EB0F948D5487FD0AC08A
:1044C0002DEB37E346E855E3C501B4010F94374BB4
:1044D0001816F4F4133051F440924C0250924D02ED
:1044E00060924E0270924F0201E012C0A501940149
:1044F000F70160817181828193810F942D52D701E0
:104500006D937D938D939C931397812F0F945120DE
:104510001F5FB4E0EB0EF11CECA1FDA13496FDA3EE
:10452000ECA3F4E0CF0ED11C143009F09ECF002391
:1045300021F08CE492E00E948B950F94FA260C9463
:104540002F3180918602882311F40C942F3189E455
:104550000E943F5BE82E882321F00E94BB5A082F5F
:1045600001C000E08AE40E943F5BF82E882321F01E
:104570000E94BB5A182F01C010E0EE2011F0043049
:1045800020F4FF2041F0143030F08EEE96E00E94CF
:10459000B8800C942F3180E1E0E4F2E0A9E0B7E0CC
:1045A00001900D928A95E1F7EE2019F1602F000F2E
:1045B000770B880B990B0F943E4B2091D5053091CA
:1045C000D6054091D7055091D8050F949D4B209169
:1045D000C7053091C8054091C9055091CA050F948F
:1045E0002D526093090770930A0780930B079093ED
:1045F0000C07FF2019F1612F110F770B880B990B16
:104600000F943E4B2091D9053091DA054091DB059E
:104610005091DC050F949D4B2091CB053091CC053A
:104620004091CD055091CE050F942D5260930D070A
:1046300070930E0780930F079093100760E080E55A
:104640000E945B5B8823C1F1EE20D1F02091270707
:10465000309128074091290750912A076091090756
:1046600070910A0780910B0790910C070F942C52C0
:104670006093090770930A0780930B0790930C07C8
:10468000FF20D1F020912B0730912C0740912D076E
:1046900050912E0760910D0770910E0780910F07C2
:1046A000909110070F942C5260930D0770930E0792
:1046B00080930F079093100740E050E0BA0186E422
:1046C0000E9483446B017C0120E030E0A9010F943B
:1046D0008D5418164CF420E030E040E752E4C70156
:1046E000B6010F94275303C060E070E0CB016983EB
:1046F0007A838B839C83CE0101960F94E0240C94E3
:104700002F310E9446F80C942F31809148169091D9
:1047100049168737910511F40C94A12B0CF0DFC0DA
:104720008C34910509F4C5C40CF05DC08931910544
:1047300009F4C8C21CF58431910509F453C27CF414
:104740008131910509F43AC22CF4029708F4BFC1F3
:104750000C942331429709F45CC60C9423318631C2
:10476000910509F464C20CF45EC28731910509F425
:1047700067C2489709F479C20C9423318E319105B0
:1047800009F414C3ACF48B31910509F4B4C20CF4F0
:10479000A4C28C31910509F401C34D9711F00C941A
:1047A00023318091E2148E7F8093E2140C942F3198
:1047B0008A32910509F44BC44CF48F31910509F408
:1047C0009BC3809709F455C30C9423318033910522
:1047D00009F46BC48B34910511F00C9423310E94C1
:1047E000789D0C942F318B36910509F418C5ECF5A2
:1047F0008435910509F40DC6FCF48135910509F461
:10480000EBC54CF48D34910511F00C9423310E94CA
:10481000C79D0C942F318235910509F4F3C583357A
:10482000910511F00C94233180914D038F7E8062AD
:1048300080934D030C942F318836910509F43DC4C3
:1048400054F48535910509F410C68C35910509F4A9
:104850002FC60C9423318936910509F4A8C48A36F1
:10486000910509F4B8C40C9423318037910511F4F3
:104870000C942F318CF48D36910509F442C414F454
:104880000C942F318E36910509F4D8C48F369105DA
:1048900009F4E7C40C9423318337910509F4A6C6C3
:1048A0006CF48137910509F421C58237910511F027
:1048B0000C9423310F94911E0C942F318537910560
:1048C00009F4FDC68637910511F00C94233100914F
:1048D00046161091471694E0F12C40E016C78E3230
:1048E00021E0920711F40C94492F0CF06EC08C3C1F
:1048F000910511F40C949C2C74F58139910509F4FF
:1049000032C784F48937910509F426C70CF41CC713
:104910008D37910509F45DC58C38910509F408C5FA
:104920000C942331883C910509F477C754F48B39F2
:10493000910509F428C58E3B910509F412C50C9424
:104940002331893C910509F4B2C78B3C910509F4E8
:10495000D1C70C9423318D3D910511F40C94052D94
:10496000A4F48E3C910511F40C94D32C14F40C9403
:10497000D02C833D910511F40C94F52C8C3D9105C0
:1049800011F40C94F82C0C9423318232A1E09A0794
:1049900011F40C943E2E64F4823E910511F40C94B3
:1049A0005B2D8831914011F40C94A72D0C94233188
:1049B0008C32F1E09F0711F40C94412E8D3291401E
:1049C00011F40C94562E0C942331843F31E093075C
:1049D00011F40C946B30F4F58239B1E09B0711F4BB
:1049E0000C949D2FB4F48033F1E09F0711F40C94E4
:1049F000D62E14F40C948D2F803931E0930711F4E6
:104A00000C94902F8139914011F40C94932F0C94B5
:104A10002331843AB1E09B0711F40C94A82F6CF475
:104A20008A39F1E09F0711F40C942F318C399140B1
:104A300011F40C94A22F0C942331853A31E09307A2
:104A400011F40C94AB2F8C3A914011F40C940D306E
:104A50000C9423318C30B2E09B0711F40C948E300F
:104A6000B4F4863FF1E09F0711F40C94713014F414
:104A70000C946E30873F31E0930711F40C9474303E
:104A8000883F914011F40C947D300C942331833590
:104A9000B3E09B0711F40C9412316CF48835F2E00A
:104AA0009F0711F40C9496308B35924011F40C94BE
:104AB00099300C942331803A33E0930709F40EC205
:104AC000873E934011F40C9415310C942331A0903F
:104AD0004616B090471680E50E943F5B882359F048
:104AE0000F94DD306B017C0111E0672B682B692B83
:104AF00031F410E004C010E0C12CD12C760183E524
:104B00000E943F5B882311F40C94FD330E94BF5A2E
:104B100020E030E04AE754E40F949D4B0F94A053FB
:104B20006B017C0111110BC0672B682B692B39F4C9
:104B3000A114B10421F0F5018081811102C010E0BF
:104B400001C011E00E94A891112329F061E0C50184
:104B50000F94713105C060E08DE097E00E94E7A4FA
:104B600010914E0383E080934E0381E0809394057F
:104B7000C114D104E104F10431F00F94463CC60E97
:104B8000D71EE81EF91E80919405882311F40C9419
:104B90000734C114D104E104F10411F40C9402347B
:104BA0000F94463CDC01CB018C199D09AE09BF096D
:104BB000B7FF02C00C9402340C94073480914B165A
:104BC00084FF02C00C940E3480914D1687FF02C002
:104BD0000C940E3480914E16837011F00C940E34A8
:104BE0000C942A3488E397E00E94B88084EB92E129
:104BF0000E9480B68BE1E4EBF2E1DE0111960190B8
:104C00000D928A95E1F760E070E0CE0101960E9476
:104C10006BB9CE0101960E9474B889E297E00E94B8
:104C2000B8800C942F310E941CC20C942F310E942A
:104C3000F8BF8091E214877F8093E2140C942F31A7
:104C4000E0914616F09147168081882329F0803242
:104C500009F410823196F8CF60E080914616909169
:104C600047160E9459C00C942F3180912506882345
:104C7000E9F080E090E0A0EAB1E488A399A3AAA3B8
:104C8000BBA31C8E1D8E1E8E1F8E19821A821B8244
:104C90001C8220E0AE01405E5F4FBE01645E7F4F2C
:104CA000CE0101960E94B0820C942F310E94C13631
:104CB000882321F00E9478C10E94789D0E9454F8B8
:104CC0000C942F318091E21482FF03C08B7F80937C
:104CD000E2140F94D22E0C942F318091E21483FDB4
:104CE00002C00C942F3183E50E943F5B81110C942C
:104CF00038340C942F3183E40E94F65A882319F13A
:104D000083E597E00E94B88080915E12882391F03D
:104D1000BE016F5F7F4F8BE592E10E9447B58E0128
:104D20000F5F1F4FD8018D918D01882339F00E94AC
:104D3000BC39F8CF89E497E00E94B8808AE00E94ED
:104D4000BC390C942F318091E21482FF21C082E69D
:104D500097E00E94B8806091DE147091DF1480911A
:104D6000E0149091E1144AE00E94C3398FE20E945E
:104D7000BC396091DA147091DB148091DC1490914D
:104D8000DD144AE00E94C3390E94C13A0C942F31CD
:104D900084E797E00E94B8800C942F3180914616EA
:104DA000909147160E9409C00C942F318091E21413
:104DB00083FD02C00C942F310E942CF88091E214E4
:104DC00083FD02C00C942F31409146165091471636
:104DD000BE01645E7F4F80E00F948A148C010097BF
:104DE00011F40C942F316C8D7D8D19821C8222E080
:104DF000AC01CE0101960E947AB8811102C0F12C5B
:104E000014C0CE0101960F94F8138823C1F361E01A
:104E1000CE0101960E94EFB4009789F325EEFC01C4
:104E200020831C820E9477B0F82ECE0101960E944A
:104E300074B8B801FF2099F08DE997E00E948E8147
:104E40008AE00E94BC391092DE141092DF14109296
:104E5000E0141092E1140E9497BE0C942F3185E863
:104E600097E00E948E818AEA95E10E94B8800C94B6
:104E70002F318091E21482FD0E94A8918091E2146A
:104E800083FD02C00C942F3160E080E50E945B5BE3
:104E9000182F682F80914616909147160E9459C08E
:104EA00083E50E943F5B882381F00E94875AAB0113
:104EB000BC014093DE145093DF146093E0147093B0
:104EC000E1148BE592E10E946AB20E9478C111114F
:104ED0000C942F310E94789D0C942F31209146160E
:104EE000309147169091E21492609093E214C901B8
:104EF0000E9409C00C942F310E94299D7B018C01D6
:104F000020E831E541E050E00F948D51C9016DE694
:104F100071E00F94FC514B015C01C801B70120E125
:104F20003EE040E050E00F948D51CA01B90128E104
:104F300030E040E050E00F948D51762E672EC62E63
:104F4000D72E6CE3262E312C412C512CC801B701F1
:104F5000A20191010F948D51F62EE72ECA01B901DD
:104F6000A20191010F948D51CB018E010F5F1F4F54
:104F70008114910499F0EF92FF927F936F936F9257
:104F80007F92BF92AF929F928F928BEA97E09F930E
:104F90008F931F930F930F94CF4A13C0A114B104A2
:104FA000B1F0EF92FF927F936F936F927F92BF92D7
:104FB000AF928FEA97E09F938F931F930F930F9475
:104FC000CF4A0FB6F894DEBF0FBECDBF30C0CD289C
:104FD00079F0EF92FF927F936F936F927F9283EBC2
:104FE00097E09F938F931F930F930F94CF4AE9CF2E
:104FF000892B69F0EF92FF927F936F9387EB97E095
:105000009F938F931F930F930F94CF4ADACFEF9212
:10501000FF928BEB97E09F938F931F930F930F94C7
:10502000CF4A0F900F900F900F900F900F9060E06D
:10503000C8010F9471310E947082B8018FEB97E024
:105040000E948E818AE00E94BC390C942F3183E546
:105050000E943F5B882311F40C942F310E94975AD1
:10506000F82E6DE070E080E50E944C5B8C0197FFAC
:1050700002C00C942F31873031F0893041F4F09226
:1050800096090C942F31F09297090C942F3160E01F
:1050900089E40E945B5B81110C944934802F0F944A
:1050A0009C3C811125C50C9449340E946D4C0C9494
:1050B0002F310E94B29D0C942F3180916B0F83FF92
:1050C00002C00C942F310F94442D87FF02C00C9422
:1050D0002F3183E50E943F5B882379F00E94BF5AFD
:1050E0000F949953CB010E94CAFA0F94300081119A
:1050F00004C00E94C79D0E9454F80F94C13C0C94B8
:105100002F3180916B0F83FF02C00C942F310F94CD
:10511000442DF82E87FF02C00C942F3183E50E94A6
:105120003F5B082F811106C082E50E943F5B182F6C
:10513000882381F10E94BF5A0F949953CB010E949A
:10514000CAFA0F943000882311F40C9457340E944B
:10515000789D60914C1270914D12072E000C880BB7
:10516000990B0F943E4B4B015C01409048125090BC
:10517000491260904A1270904B12A30192010F9451
:105180008D54181614F40C947734002311F40C94F5
:105190005D3411E00F94C13C112311F40C942F31B4
:1051A00040E0602F8F2D0E94DEFC0C942F310F9475
:1051B000442D182F87FD0AC080EE9CE00E94B88025
:1051C000812F0E94DAFA8AE00E94BC39F8A9F09394
:1051D0004E030C94A33560E080E50E94614C182FCB
:1051E000823010F00C942F3181E40E94F65A88230B
:1051F00021F06091960970E002C06FEF70E083E5E6
:105200000F94A02FE12FF0E0EA56F64F8F3F910563
:1052100019F010F08FEF90E080830C942F3160E054
:1052200080E50E94614C823010F00C942F31E82F01
:10523000F0E0EA56F64F10820C942F318EE40E9473
:105240003F5B882311F40C942F310E94875A60939E
:105250005D0470935E0480935F04909360040C94EB
:105260002F3183E50E94F65A882331F060E083E510
:105270000E94614C80936B0F0E94708285ED97E0D5
:105280000E94B88080916B0F882369F156E0E52E6B
:105290005BE0F52E00E010E020E080916B0F90E0E5
:1052A000A0E0B0E0002E04C0B695A795979587952D
:1052B0000A94D2F780FF0EC0DD24D394D20E2223AD
:1052C00019F08CE20E94BC39F701859194910E94FB
:1052D000B8802D2D0F5F1F4F32E0E30EF11C05301B
:1052E0001105D9F62BCD81ED97E026CD83E50E94FF
:1052F0003F5B882371F00E94975A282F30E02D33AE
:1053000031051CF480930002AAC78CE3809300024D
:10531000A6C70E9470824091000250E060E070E0F9
:105320008CED97E00E9452818AE00E94BC3997C7B9
:1053300080916B0F83FD93C783E50E943F5B8823B9
:1053400039F00E94BF5A0F949953CB010E94795AA9
:105350000F943000811183C70E94C79D0E9454F8AA
:105360007EC780916B0F83FD7AC783E50E943F5B08
:10537000182F81110C947A3482E50E943F5B8111D1
:105380000C947A346CC783E50E943F5B882309F450
:1053900066C70E94975A182F90E0CD970CF01CE337
:1053A000109348030F94463C6B017C01212F30E0A1
:1053B000A8EEB3E00F94E151C60ED71EE81EF91E09
:1053C000C0924403D0924503E0924603F092470313
:1053D00046C70F94D22E43C70F9443000E94C79D27
:1053E0000E94B9910E94BC3668EE73E080E090E0C4
:1053F0000E94F87F0E94E53660E081E098E00E941C
:10540000E7A42DC780914D038F7D806180934D036C
:1054100026C783E50E943F5B882399F00E94BF5A0C
:1054200020E030E04AE754E40F949D4B0F94A053E2
:10543000609301027093020280930302909304022E
:105440000EC780914B1684FF02C00C94A934809142
:105450004D1687FF02C00C94A93480914E168370BC
:1054600011F00C94A9340C94DA3483E50E94F65AB6
:10547000882309F4F4C60F94463C6093CD0F7093D3
:10548000CE0F8093CF0F9093D00F0E94BF5A20E091
:1054900030E04AE754E40F949D4B0F94A05360937F
:1054A000490370934A0380934B0390934C03D7C6F0
:1054B0000F94442D87FDD3C690914B1694FD04C0E4
:1054C00090914D1697FF0AC036E0C32E33E0D32EDD
:1054D0004CE6E42E4FE0F42E10E009C090914E16F9
:1054E000937091F7682F81E00F94A230B8C6D6016F
:1054F0008D916D010E943F5B882309F46DC01330CC
:1055000009F063C00E94BF5A4B015C0120E030E00B
:1055100040EA51E40F94374B87FF4EC0A501940138
:1055200060918C0F70918D0F80918E0F90918F0FE5
:105530000F9427532B013C019B01AC0160917A0928
:1055400070917B0980917C0990917D090F949D4B0E
:1055500060937A0970937B0980937C0990937D090D
:10556000A301920160919C0F70919D0F80919E0FFD
:1055700090919F0F0F949D4B60939C0F70939D0F84
:1055800080939E0F90939F0F60918A0970918B0971
:1055900080918C0990918D090F943C4BA30192014D
:1055A0000F949D4B0F94A05360938A0970938B09BD
:1055B00080938C0990938D0980928C0F90928D0F1F
:1055C000A0928E0FB0928F0F07C00E94BF5AF701B2
:1055D000648B758B868B978B1F5FF4E0EF0EF11C4D
:1055E000143009F084CF0E94849139C68CE299E08E
:1055F0000E94B88060E08CE199E00F94771E60E033
:1056000087E099E00F94771E61E087E798E10F94B7
:10561000771E61E08CEF98E00F94771E61E08CEECE
:1056200098E00F94771E60E083EE98E00F94771E69
:1056300061E089ED98E00F94771E61E08FEC98E0CF
:105640000F94771E61E087EC98E00F94771E61E07D
:1056500089EB98E00F94771E60E08BEA98E00F9456
:10566000771E60E08CE998E00F94771E60E08EE88A
:1056700098E00F94771E60E088E798E00F94771E1B
:1056800061E087E698E00F94771E60E088E598E097
:105690000F94771E60E083E498E00F94771E61E03A
:1056A00080E398E00F94771E60E083E298E00F9427
:1056B000771E60E08FE098E00F94771ED0C5809150
:1056C000461690914716009709F4F8CADC012C9110
:1056D000222309F4F3CA60E00F947131C0C5F801C8
:1056E0008081282F2B7F213499F08035E9F4818146
:1056F00080538A30C8F498012E5F3F4F89012F5F95
:105700003F4FF80180818032C9F3915041F70CC0BE
:105710002181213349F4813421F0853461F741E05E
:10572000EACFFF24F394E7CF41110E947082FF205B
:1057300021F082EF99E00E94B880C8010E94C73A28
:105740008EC50F940F288BC581E0809384078093CA
:1057500083070F94662883C51092840710928307ED
:105760000F9466287CC560E070E083E50E944C5B86
:105770008C011127023011053CF00E94A18186EFB7
:1057800099E00E94B8806BC588E40E943F5B882343
:10579000A1F00E94BB5A8A3A910534F08C3E9105E3
:1057A0002CF08BEE90E002C08AEA90E0F801EE0F58
:1057B000FF1FE253F94F9183808386E40E943F5B91
:1057C000882381F00E94BB5A97FD07C08F3F910547
:1057D00029F024F08FEF90E001C080E0F801EA5258
:1057E000F94F808382E40E943F5B882309F437C528
:1057F0000E94BB5A8530910534F08F3691052CF00C
:105800008EE690E002C085E090E0F801EE0FFF1F09
:10581000EE52F94F9183808322C50F94442D182FA7
:1058200087FD1DC584E40E94F65A8823E9F10E9491
:10583000BF5A6B017C0101E020E030E0A9010F9428
:10584000374B811101C000E000932D0520E030E0CE
:10585000A901C701B6010F94374B882329F124E031
:105860001202F0011124EE5CFA4FC082D182E28272
:10587000F38220E030E0A901609132057091330598
:1058800080913405909135050F94374B81110CC0F0
:1058900080E090E0A0EEBFE3809332059093330563
:1058A000A0933405B09335050E94DA8ED8C40F94C6
:1058B000442D87FDD4C4A6E0EA2EA3E0FA2E0CE620
:1058C0001FE0D7018D917D010E94F65A882359F07F
:1058D0000E94BF5A0F94A053F801608371838283A2
:1058E00093830E943D910C5F1F4FFFE00C371F0711
:1058F00041F7B5C40F94442D87FDB1C4E6E0EE2E08
:10590000E3E0FE2E0CE61FE0FCE7CF2EFFE0DF2EEB
:10591000D7018D917D010E94F65A882339F00E94AB
:10592000BF5AF80164A375A386A397A30C5F1F4F0A
:10593000C016D10669F793C480914C1687FF02C048
:105940000C94DD3480914D168E7011F00C94DD3482
:105950004091A00F5091A10F6091A20F7091A30FE1
:1059600088E19AE00E9470814091A40F5091A50FA8
:105970006091A60F7091A70F8FE89EE10E94708141
:105980004091A80F5091A90F6091AA0F7091AB0F91
:1059900084E091E20E9470818AE00E94BC395FC479
:1059A0000F94ED305CC466E0C62E63E0D62E77E837
:1059B000E72E77E0F72E10E0D6018D916D010E9461
:1059C000F65A882351F00E94BF5AF7016083718311
:1059D00082839383812F0F9451201F5FF4E0EF0E99
:1059E000F11C133049F70C949D220F94B32F37C448
:1059F00083E50E943F5B882309F431C40E94BB5AAF
:105A000090938402809383022AC40F94442DF82E2D
:105A100087FD25C483E50E943F5B0F2D0F2C000CF2
:105A2000110B882369F10E94BB5AF801EE0FFF1F8A
:105A3000E95EFD4F91838083000F111F000F111F3E
:105A40009801205B3D4F7901BC01990F880B990BA0
:105A50000F943E4B2AE037ED43E25CE30F949D4BFD
:105A6000F801E25DFA4F20813181428153810F9428
:105A70009D4BD7016D937D938D939C931397EFC3AB
:105A80000E94708285E40E94BC3980E38F0D0E94E1
:105A9000BC39F801EE0FFF1FE95EFD4F6081718197
:105AA00088E29AE00E94818185E20E94BC398AE006
:105AB0000E94BC39D4C380E50E94F65A882309F4B9
:105AC000CEC360E070E080E50E944C5BF82E6FEF83
:105AD0007FEF83E50E944C5B8C010196039708F0F1
